:100000000C942A000C9447000C9447000C94470071
:100010000C9447000C9447000C9447000C94470044
:100020000C9447000C9447000C9447000C94470034
:100030000C9447000C9447000C9447000C94470024
:100040000C9447000C9447000C9447000C94470014
:100050000C94470011241FBECFE5D8E0DEBFCDBF12
:1000600010E0A0E6B0E0E0E9F4E002C005900D92F7
:10007000A03DB107D9F720E0A0EDB0E001C01D928E
:10008000A03DB207E1F70E949D010C9446020C943A
:100090000000A39AA49AA59AA098A89AA198A99AB0
:1000A000A298AA9A0895EF92FF920F931F93CF936D
:1000B000DF93EE24E394F12CAB9AAC9AAD9A03E073
:1000C00010E085B3E701002E02C0CC0FDD1F0A94BB
:1000D000E2F79C2F9095892385BB85B3887388327E
:1000E00081F1803321F0883109F07FC054C083B39F
:1000F00060E00E943E02811108C083B360E00E946C
:100100003E028823D1F381E37AC083B361E00E9489
:100110003E02811108C083B361E00E943E02882341
:10012000D1F384E36CC083B362E00E943E0281118C
:100130005CC083B362E00E943E028823D1F387E370
:100140005EC083B360E00E943E02811108C083B3A9
:1001500060E00E943E028823D1F382E350C083B363
:1001600061E00E943E02811108C083B361E00E94F9
:100170003E028823D1F385E342C083B362E00E944C
:100180003E02811132C083B362E00E943E028823A6
:10019000D1F388E334C083B360E00E943E02811152
:1001A00008C083B360E00E943E028823D1F383E35A
:1001B00026C083B361E00E943E02811108C083B370
:1001C00061E00E943E028823D1F386E318C083B326
:1001D00062E00E943E02811108C083B362E00E9487
:1001E0003E028823D1F389E30AC085B3C82BC5BB7F
:1001F0000F5F1F4F0630110509F063CF5DCFDF9110
:10020000CF911F910F91FF90EF9008951BB8539AD3
:10021000549A86E880BD83E089B908955D9BFECF3E
:100220008CB908955F9BFECF2CB1FC01208308950B
:10023000DA9ADA9882E08A95F1F700C00895CF93B0
:10024000C82FD898D9988BB38F709C2F907F892B0B
:100250008BBB0E9418018FE99FE00197F1F700C066
:1002600000008BB3282F2F7030E1C39FC0011124F1
:10027000822B8BBB0E9418018FE99FE00197F1F759
:1002800000C00000CF9108958FEF8ABB83E30E94E6
:100290001F0182E30E941F0188E20E941F018EE07D
:1002A0000E941F0181E00E941F018FE99FE00197DA
:1002B000F1F700C000000895CF93C82FD89AD998BD
:1002C0008BB38F709C2F907F892B8BBB0E94180162
:1002D0008FE99FE00197F1F700C000008BB3282F52
:1002E0002F7030E1C39FC0011124822B8BBB0E9471
:1002F00018018FE99FE00197F1F700C00000CF914E
:1003000008950F931F93CF93FC018081882359F0A8
:100310008F01C0E00E945C01CF5FF801EC0FF11D7E
:1003200080818111F7CFCF911F910F9108950E9485
:1003300053008823E1F380530895CF93DF931F92F6
:10034000CDB7DEB70E9444010E9406010E94490019
:10035000198281E00E941F0180E690E00E948101E5
:1003600080EC0E941F010E949701F82E80E38F0D00
:100370000E945C010E949701082F80E3800F0E9479
:100380005C010E949701182F80E3810F0E945C019D
:100390008F2D0E940E01802F0E940E01812F0E943E
:1003A0000E01CE0101960E9412018981813009F06F
:1003B0005DC00E941F018FE690E00E94810187E7E7
:1003C00090E00E94810180EC0E941F018FE790E085
:1003D0000E9481010E949701182F0E940E01123085
:1003E00061F0133091F01130C9F581E00E941F01D6
:1003F00080E990E00E948101ABCF81E00E941F0163
:100400008AE990E00E948101A3CF81E00E941F0150
:1004100085EA90E00E94810180EC0E941F010E9409
:100420009701182F80E3810F0E945C01812F0E94A9
:100430000E010E949701182F80E3810F0E945C013A
:10044000812F0E940E010E949701182F80E3810FD7
:100450000E945C01812F0E940E017ACF81E00E94F0
:100460001F0184EB90E00E94810172CF81E00E9425
:100470001F0180EC90E00E9481016ACF90E002C0F1
:10048000959587956A95E2F781700895F894FFCF66
:10049000656E7465722070617373776F726400317A
:1004A0002E6F70656E0900322E636C6F73650033BA
:1004B0002E72657365742070617373776F72640058
:1004C0006F70656E20646F6F7200636C6F73652070
:1004D000646F6F7200656E746572206E6577207050
:1004E0006173730077726F6E6720656E7472790046
:1004F00077726F6E672070617373776F726400003C
:00000001FF
