S0120000696E6E65725F756E69742E73726563D7
S11300000C942A000C9434000C9434000C943400A6
S11300100C9434000C9434000C9434000C9434008C
S11300200C9434000C9434000C9434000C9434007C
S11300300C9434000C9434000C9434000C9434006C
S11300400C9434000C9434000C9434000C9434005C
S11300500C94340011241FBECFE5D8E0DEBFCDBF21
S11300600E946B010C944C020C9400000E942B0221
S113007008951F93CF93DF93EC01162F0E94320251
S11300800E944902883009F5CE0188279770880FAD
S1130090892F881F990B9195806A0E943B020E94C8
S11300A049028831A1F48C2F0E943B020E9449022C
S11300B0883279F4812F0E943B020E9449028832DF
S11300C051F40E94380281E007C080E005C080E05E
S11300D003C080E001C080E0DF91CF911F910895BB
S11300E0EF92FF920F931F93CF93DF93EC018B0159
S11300F00E9432020E944902883091F57E01EE246A
S113010087E0F822EE0CEF2CEE1CFF08F1948E2D04
S1130110806A0E943B020E944902883119F58C2FA3
S11301200E943B020E9449028832F1F40E9432028A
S11301300E9449028031D1F48E2D816A0E943B02D3
S11301400E9449028034A1F40E944202F801808393
S11301500E944902883571F40E94380281E00BC084
S113016080E009C080E007C080E005C080E003C0F3
S113017080E001C080E0DF91CF911F910F91FF904B
S1130180EF9008951BB8539A549A86E880BD83E093
S113019089B908955D9BFECF8CB908955F9BFECF0E
S11301A02CB1FC0120830895DA9ADA9882E08A95CA
S11301B0F1F700C00895CF93C82FD898D9988BB37E
S11301C08F709C2F907F892B8BBB0E94D4008FE96A
S11301D09FE00197F1F700C000008BB3282F2F7028
S11301E030E1C39FC0011124822B8BBB0E94D40039
S11301F08FE99FE00197F1F700C00000CF910895C7
S11302008FEF8ABB83E30E94DB0082E30E94DB0062
S113021088E20E94DB008EE00E94DB0081E00E9405
S1130220DB008FE99FE00197F1F700C0000008951B
S1130230CF93C82FD89AD9988BB38F709C2F907F67
S1130240892B8BBB0E94D4008FE99FE00197F1F7C3
S113025000C000008BB3282F2F7030E1C39FC00172
S11302601124822B8BBB0E94D4008FE99FE001975D
S1130270F1F700C00000CF9108958B9A939A0895E6
S11302808C9A949A08958B9A939808958D9A0E94C3
S113029040010E944301959A8FE99FE00197F1F78D
S11302A000C0000095988FE39CE90197F1F700C026
S11302B0000008958C9A949808958D9A0E943D01A7
S11302C00E945A01959A95988FE39CE90197F1F75A
S11302D000C000000895CF93DF9300D000D000D079
S11302E0CDB7DEB71C821D821E820E9400010E94CF
S11302F0C200A29A0E94360061E081E193E00E946C
S1130300390061E082E193E00E94390061E083E119
S113031093E00E943900BE016F5F7F4F81E193E05B
S11303200E9470008E818F5F8983BE016E5F7F4F54
S113033082E193E00E9470008E818F5F8A83BE0108
S11303406D5F7F4F83E193E00E9470008E818F5F29
S11303508B831C82AA24A3946E0184E0C80ED11C52
S1130360BC2CED2C1EC01C82A1101BC0BE016F5FF3
S11303707F4F81E193E00E9470008E818983BE01EA
S11303806E5F7F4F82E193E00E9470008E818A83CA
S1130390BE016D5F7F4F83E193E00E9470008E8108
S11303A08B838981805D0E9418018A81805D0E940F
S11303B018018B81805D0E9418018E010F5F1F4F11
S11303C0F12C8B2D9E2D0E94CE00F80191918F016E
S11303D08C81981301C0F3940C151D0591F7F3E07B
S11303E0FF1233C081E00E94CA00CE0105960E942C
S11303F0CE008D81823041F0833049F0813009F0A4
S1130400B2CF0E944601AFCF0E945D01ACCFCE01B6
S113041006960E94CE006E8181E193E00E9439002D
S1130420CE0106960E94CE006E8182E193E00E9486
S11304303900CE0106960E94CE006E8183E193E0DE
S11304400E9439001C82A12C91CF80E00E94CA0036
S11304500E945D0188CF82E080B911B882B984E03E
S113046086BF089584EA86BF06B607FEFDCF0895C9
S113047084E986BF089583B984E886BF06B607FE7B
S1130480FDCF089584E886BF06B607FEFDCF83B18D
S10F0490089581B1887F0895F894FFCF8F
S9030000FC
